:1000000080316728080008007E1480314E01161CDC
:100010000A280B2813280C1C0E280F2813288D31B2
:10002000392580316528161E162817281F280C1E12
:100030001A281B281F288D317A25803165280B1F2F
:10004000222823286528191F2628272832280F1F31
:100050002A282B283228420147088A0046080A002D
:1000600080316528991F3528362841288F1F392867
:100070003A284128420143088A0042080A00803198
:100080006528991D442845284D288F1D4828492852
:100090004D288D31112580316528191D5028512892
:1000A00059280F1D5428552859288D311525803180
:1000B0006528191C5C285D2865280F1C60286128AC
:1000C000652886314E26803165287E1009008031F2
:1000D000692842018731FE278031DE008731FF2702
:1000E0008031DF00F001F101F201F301F40155303C
:1000F0008400003085000E308D313F258031E030A6
:1001000084000030850010308D313F258031203053
:100110008400013085002E308D313F258031A030A4
:1001200084000130850040308D313F258031203002
:1001300084000230850040308D313F258031A03071
:1001400084000230850040308D313F2580317E10A3
:10015000400184313C2C400126080319B028B12805
:10016000C228A31BB428B528C2282508803AA700B6
:1001700080302702031DBE28013024020318C12845
:10018000C228C828FF304001A200FF30A30059292F
:1001900040012608AA002508B0002408AF00230863
:1001A000B2002208B10049294001181206308E31F0
:1001B0008C268031400118163F303105A8000030F0
:1001C0003205A9004030A70028082702AB00290902
:1001D0000318890AAC003008803AA7002C08803A3E
:1001E0002702031DF5282B082F02031CF828F928E5
:1001F000FF2840012C08B4002B08B300042940015B
:100200003008B4002F08B300181202308E318C264B
:100210008031400132088E318C2680314001310816
:100220008E318C2680314001AD01AE01252940017F
:100230002A082D078600870101088E318C2680311F
:1002400001304001AD070030AE3D2E08803AA700D6
:100250003408803A2702031D2F2933082D02031C7E
:1002600032293329172940011816FF308E318C2688
:1002700080310139031D3D293E29352940013308CC
:10028000B1073408B23D3308AA073308AF02340877
:10029000B03B3008803AA70080302702031D522966
:1002A00001302F02031855295629D4284001A201F4
:1002B000A30108004001B001B101B201B301B829A6
:1002C000400123083207860001308700010886318B
:1002D0000B26813140012108AD002008AC00320816
:1002E000013EA9000030333DAA002A08803AAB0045
:1002F0002508803A2B02031D7F2924082902031CAC
:10030000822983298929FF304001AE00FF30AF00E8
:100310009A29400132082307A900290A86000130E2
:100320008700010886310B26813140012108AF008A
:100330002008AE00AD1B9D299E29D529AF1FA129FC
:10034000A229A329D52926083007860087012C0871
:10035000A9000430A935890BAA2929082E04810097
:100360000130B0070030B13D0230B2070030B33D7C
:100370003308803AA9002508803A2902031DC229C2
:10038000240832020318C529C629D529400131089D
:10039000803AA9002808803A2902031DD12927089C
:1003A0003002031CD429D529602940013108A4005A
:1003B0003008A300080040019801183099009A0104
:1003C0009B019C019D01FF309200DA309300940163
:1003D000950108309600FF309700DF307E01B800AD
:1003E0006030C300CE01D901E4017C01D00120308E
:1003F0007E01B900C401CF01DA01E5017C01D10120
:100400007E01BA01C501D001DB01E6017C01D20108
:10041000FF307E01BB00FF30C600FF30D100FF304F
:10042000DC000730E700FF307C01D300FF307E01A5
:10043000BC00FF30C700FF30D200FF30DD000F30BE
:10044000E800FF307C01D40009307D01C6000F3088
:10045000CD000530900016307E019A0011309D00CD
:1004600008307D01C50015307E0198000B307D01FC
:10047000C80017307E019B000C307D01C900183088
:100480007E019C00BD012030BE00BF01C801C90132
:10049000CA01D301D401D501E901EA01EB0103301E
:1004A0004001A0000030A1008D319E2581314E0118
:1004B000161608004301901A5E2A5F2AD02A81305E
:1004C000F40040012608A700A8012708A00028087A
:1004D000A1000530A2000030A3008F313C278231FB
:1004E00045304001200784001130213D80388500CF
:1004F000000843018F0040012608A700A801270833
:10050000A0002808A1000530A2000030A3008F3110
:100510003C27823146304001200784001130213DC4
:100520008038850000084301900040012608A7009C
:10053000A8012708A0002808A1000530A20000306B
:10054000A3008F313C2782314730400120078400CF
:100550001130213D803885000008430192004001A0
:100560002608A700A8012708A0002808A100053038
:10057000A2000030A3008F313C2782314830400177
:10058000200784001130213D803885000008430198
:100590008D0090164E01191001304001A900D22A99
:1005A0004001A90129080800303431343234333491
:1005B00034343534363437343834393441344234D1
:1005C0004334443445344634003449346E34693459
:1005D0007434203473347534633463346534733461
:1005E00073342E3420343A3429340A340D345534DB
:1005F00053344534463455344C3420343634353451
:1006000030343234203443344F34503452344F3445
:1006100043344534533453344F3452342034433408
:100620004F344E34543452344F344C3420345334D9
:10063000483445344C344C342034623479342034DA
:100640004A344F34533445345034483420345234CF
:1006500020344634523445344534533454344F34C2
:100660004E34003441016A35203E86000130870057
:100670000030C03FC13F54019D1C3F2B402B522BEB
:1006800041016A35203E860001308700011562086D
:10069000630403194C2B4D2B522B63088A0062080C
:1006A0000A00833154011D1D562B572B692B410124
:1006B0006A35203E86000130870081146408650495
:1006C0000319632B642B692B65088A0064080A00F0
:1006D000833154011908F80041016A08013E0739C5
:1006E000F90079086906031D762B772B782B832B6D
:1006F0006A08303E8600013087007808810079085A
:10070000EA000130E807660867040319882B892B83
:100710008E2B67088A0066080A00833108008E3134
:100720001A26833140011816121293140430A600C1
:1007300082315A228331003A031D9F2BA02BAE2B0E
:100740009C304001A3009230A4008E31CE2683312C
:10075000FF304001AA00FF30AB00E52B77304001AD
:10076000A3009130A4008E31CE26833140011812AF
:1007700005308E318C2683312E308E312B268331FD
:10078000FF308E318C2683314001AC00AD012C0846
:10079000AE002D08AF001816E230A3009130A4007F
:1007A0008E31CE26833140012E088F315C27833174
:1007B000AB304001A3009230A4008E31CE268331AD
:1007C00040012F08AB002E08AA00080040012608AF
:1007D0000319EB2BEC2BFD2BA31BEF2BF02BFD2B8D
:1007E0002508803AA70080302702031DF92B01302D
:1007F00024020318FC2BFD2B032CFF304001A20028
:10080000FF30A3003B2C4001181203308E318C26A0
:100810008331400123088E318C2683314001220828
:100820008E318C26833140012608A800A901AA0137
:10083000292C400128082907860002308700FF3054
:100840008E318C268331810001304001A9070030B0
:10085000AA3D2A08803AA7002508803A2702031DEE
:10086000332C24082902031C362C372C192C400168
:100870001816A201A30108008E314F2684318E3153
:100880003C2684318B170B178C31EC2484318C314E
:10089000EF2484313D304001A0000730A1008D31AC
:1008A000DE2584318C31E62484317F304001A30081
:1008B0008530A4008E31CE268431400192119815E6
:1008C00083318F23843150304001A3009030A40045
:1008D0008E31CE26843100304001A3009030A40038
:1008E0008E31CE26843100304001A500A6001230A2
:1008F000A7008F31A727843100304001A500A60052
:100900008731CF2784318F315C27843175304001A6
:10091000A3009030A4008E31CE2684318E2C8031FD
:10092000672840012608A1002508A0008E31A226D4
:10093000843140018F1797010F138F122508290763
:10094000AD0026082A3DAE002608B0002508AF00FD
:10095000C92C40018F123008A1002F08A0008E3151
:10096000A226843140012B088600870101089100EE
:10097000003200320032003240018F160130AB07E6
:100980001A30890BC12C003201304001AF07003012
:10099000B03D3008803AAC002E08803A2C02031D8E
:1009A000D32C2D082F02031CD62CD72CA92CFF30BA
:1009B00040019700F330A000FF30A1008E31A22645
:1009C0008431080040012608A1002508A0008E31CE
:1009D000A2268431FF30400197000F178F128F132A
:1009E00025082907AE0026082A3DAF002608B100D9
:1009F0002508B000122D40013108A1003008A000E8
:100A00008E31A226843140012B0886002C088700F5
:100A1000110881000130AB070030AC3D0130B00758
:100A20000030B13D3108803AAD002F08803A2D02E8
:100A3000031D1C2D2E083002031C1F2D202DFB2C06
:100A400040018F17F330A000FF30A1008E31A226A5
:100A500084318D315A25843140012A08A6002908A5
:100A6000A50008008C31D42485314301191E392D8D
:100A70003A2D3E2D8E31622685316A2D8D315325DA
:100A80008531003A0319452D462D542D8D313325DE
:100A90008531003A03194D2D4E2D542D053040015E
:100AA000E2000130E1006A2D8D3122258531003AC6
:100AB00003195B2D5C2D6A2D8D3133258531003A6C
:100AC0000319632D642D6A2D05304001E2000230C8
:100AD000E1006A2D40016208F700F801F735F80DD2
:100AE0004230770784001230783D80388500013F1E
:100AF0008A00003F0A0085314001E20008000A3404
:100B00000D340A340D340A340D343D343D343D3453
:100B10003D343D343D343D343D343D343D343D344D
:100B20003D343D343D343D343D343D343D343D343D
:100B30003D343D343D343D343D343D343D343D342D
:100B40003D343D343D343D343D343D343D343D341D
:100B50003D343D343D343D343D343D343D343D340D
:100B60003D343D343D343D343D343D340A340D3460
:100B700049344E3449345434493441344C34493482
:100B80005A34453444340A340D3400344001AA0147
:100B9000AB01AC01AD01F72D400123082C07860005
:100BA00001308700010886310B268531400121087C
:100BB000A9002008A800A91FDE2DDF2DE02D052E9D
:100BC0002B08A7002A08A600A60EA70EF030A7053E
:100BD00026080F39A704F030A60528082604AA0025
:100BE00029082704AB000130AC070030AD3D2D08CB
:100BF000803AA6002508803A2602031D012E24080B
:100C00002C02031C042E052ECC2D40012B08A40021
:100C10002A08A30008004001A20030302202031C71
:100C2000122E132E212E3A3022020318182E192EBE
:100C3000212E2208D03EA000FF3003180030A10072
:100C40004D2E41302202031C262E272E352E4730F2
:100C5000220203182C2E2D2E352E2208C93EA0006C
:100C6000FF3003180030A1004D2E61302202031C1A
:100C70003A2E3B2E492E673022020318402E412E79
:100C8000492E2208A93EA000FF3003180030A10021
:100C90004D2EFF30A000FF30A10008004E010F10C4
:100CA000F501710872040319562E572E772E8130E4
:100CB000730603195C2E5D2E632E70088600870173
:100CC00043010C0881000130F00773080319692EF5
:100CD0006A2E6F2E7008860087010108F50001302A
:100CE000F1020030F23B750843018C008D2E8130FB
:100CF000730603197C2E7D2E892E8130740603190C
:100D0000822E832E892E70088600870143010C08ED
:100D100081008130F4004E01191008000A340A34B1
:100D2000573472346934743469346E34673420341F
:100D30005334523441344D345B3430342D343034F8
:100D40007834313430345D34203477346934743459
:100D500068342034303478344134413420347534AC
:100D6000733469346E346734203469346E346434D7
:100D70006934763469346434753461346C342034C5
:100D80007734723469347434653473342E342E34C9
:100D90002E340A340D3400340430F5008D3105252D
:100DA0008631003A0319D52ED62E012F40015E0858
:100DB0005F040319DC2EDD2EEE2E5C0886005D0834
:100DC00087008C31DA248631810001304001DC0754
:100DD0000030DD3D0130DE020030DF3B5E085F04A5
:100DE0000319F32EF42EF82E8D3101258631042FB0
:100DF0008C31E02486318D31092586310730F500AC
:100E0000042F8C31DD248631750808004E019913BA
:100E100032304201C2000330C3004E0119130330C7
:100E20004201C6000F30C700483054019F00903087
:100E30009D0026309E0040309B0003309C00D03047
:100E40004001A0000C30A1008D31ED258731F53037
:100E50004001A0000C30A1008D31FC2587314201FA
:100E6000C801C9014101ED01EC010830EB00EA01C4
:100E7000E901E8014E01991708008D31712587318C
:100E8000003A0319442F452F6E2F8E31E726873104
:100E9000F7003F3041016F0203184F2F502F6D2F85
:100EA0006F08203E860002308700770881000130FD
:100EB000EF070A30770603195E2F5F2F652F0D307D
:100EC0007706031D642F652F6E2F6F08203E860066
:100ED0000230870081010130EE00EF010800063486
:100EE000073400340034E7340E347E340F34713468
:100EF0000D348C340D3400340034003400340034AC
:100F00000034003400340034003400340034003441
:100F10000034003400340034003400340034003431
:100F2000003400340034DE340D3400340034ED3449
:100F30000D34FC340D3400340034003400345234A9
:100F400065346134643469346E3467342034533426
:100F5000523441344D345B3430342D3430347834B1
:100F6000313430345D342034773469347434683447
:100F7000203469346E3464346934763469346434CA
:100F8000753461346C3420347234653461346434C3
:100F900073342E342E342E340A340D340034400190
:100FA0000F17FF309100FF3097002608A100250899
:100FB000A0008E31A226873140018F12003200320C
:100FC0000032003240018F13003200320032003212
:100FD00040011108A7008F170032003200320032A2
:100FE000F3304001A000FF30A1008E31A2268731EE
:100FF0008D315A258731400127080800FF34FF341E
:1019A00008004E018F1108004E010F11080043017D
:1019B0001B15080043011608080043019B15080089
:1019C00043019B10080043019B1408004E01991726
:1019D000080040010C10080040018C100800400174
:1019E0000C14080040018C14080054011D121D162F
:1019F000080043019A129A16080043019A131A1319
:101A0000080043019B121B16080043011908013905
:101A1000080043019B161B1608004001D501083041
:101A200008008F311F278D310800853132258D3117
:101A300008004E01191599150800F50075084301B5
:101A4000960008004301190E890C013908008D31F8
:101A500069258D31F500750808008D314C258D31D3
:101A6000F5007508080043011B0E890C890C01392B
:101A700008004E010C108D31A7258D31080064003F
:101A800080010131890B402D0034400156358D31E4
:101A90001D258D31033008008C31F9248D31400132
:101AA000D5010030080003104301991E03140030D3
:101AB000093D080040018F16FF3097008F170F1760
:101AC000080003144001560D8D311D258D31043061
:101AD00008008C31D7248D318E3162268D31003053
:101AE000080041016808031D762D782D0130792DFD
:101AF000003008007E01BF1E7E2D7F2D822D8D318E
:101B0000CF258D310800400121084201CD00400160
:101B100020084201CC00080041016B08031D912DF3
:101B2000932D0130942D003008004001210841011F
:101B3000E100400120084101E000080040012108C7
:101B40004201C100400120084201C00008004101DB
:101B5000600861040319AD2DAE2DB32D61088A0014
:101B600060080A008D3108004E010C10023040015F
:101B7000A0000030A1008D3195258D314E01161445
:101B80000800103051018D008F0191010530930044
:101B900020309200101CCD2DCE2DCA2D0800420100
:101BA000400841040319D52DD62DDB2D41088A00AC
:101BB00040080A008D317E01BF1208004001200854
:101BC00021040319E42DE52DEC2D21084101E70046
:101BD000400120084101E6000800400120082104DE
:101BE0000319F32DF42DFB2D21084101E5004001DF
:101BF00020084101E40008004001200821040319E5
:101C0000022E032E0A2E21084101E3004001200884
:101C10004101E200080080304301990008309A0039
:101C20009B019C014F3097008D3119258E31430166
:101C30009A1608004E0119100F1043018F019001F0
:101C400092018D0100304001A000A1008D3183255B
:101C50008E31F40108004001A2008D318C258E31B7
:101C6000003A0319342E352E2D2E40012208A000F3
:101C70008F317E278E310800FF30400197007C01B4
:101C8000D00140018F170F178F168E01F830900585
:101C90009401F830960595131513951208008D31AF
:101CA000C1258E318131DB218E31873106278E317E
:101CB0008E310B268E318E311A268E318D31B42520
:101CC0008E3108004001D5010030D700FF30D6002A
:101CD000D801D901DC01DD01E2018C31D4248E313F
:101CE0008C31D1248E318C31FD248E31080040019D
:101CF0002008A2002208860001308700A20A2108DD
:101D0000840002308500A10A0008C03F8908031D35
:101D10008A2E8B2E7A2E08004001A0004E010F1053
:101D20004001200843018C004E010F1C982E992E73
:101D3000942E43010C084001A1004E010F104001F8
:101D400021080800FF304001A0050730A105200848
:101D50008E002108A3002008A2002308A200A301EE
:101D600007302205A4001008F83924049000080068
:101D700040012008A200BE2E0130A00720088600E6
:101D8000013087000108031DC62EC72EBC2E220875
:101D90002002A000A101A01BA1030800DC2E230843
:101DA00084002408850000088E312B268E310130F6
:101DB0004001A3070030A43D40012308840024080B
:101DC00085001200031DE52EE62ECF2E08004101EE
:101DD0006908303E8600013087000108F600690876
:101DE000013E0739F5007508E9004E0199134101DC
:101DF00068080319FC2EFD2EFF2E0130E8024E016B
:101E0000991776080800083041016B020318092F62
:101E10000A2F1C2F6C08383E86000130870001080D
:101E200054019A0041016C08013E0739F50075081C
:101E3000EC000130EB071E2F4E011913080006308D
:101E40004001E2000330E1008C31D1248F314001A8
:101E50006208F700F801F735F80D42307707840083
:101E60001230783D80388500013F8A00003F0A002B
:101E70008F314001E20008004001A401A501201CAF
:101E8000422F432F472F2208A4072308A53D0130E6
:101E9000A235A30D890B482F0130A136A00C890B68
:101EA0004D2F20082104031D562F572F3F2F2508A3
:101EB000A1002408A00008004001A4002408A300F9
:101EC0000430A336890B612F23080F39D43E8400D8
:101ED00082300318013E850000088E312B268F3199
:101EE000400124080F39D43E840082300318013E9B
:101EF000850000088E312B268F3108004E01191BFA
:101F0000822F832F882F4001200854019A00A42F8C
:101F100041016B0803198D2F8E2FA42F6D08383EB9
:101F200086000130870040012008810041016D08D2
:101F3000013E07394001A10021084101ED004E0199
:101F4000191301304101EB024E011917080040013D
:101F50008F172608A1002508A0008E31A2268F31F8
:101F600040019701270891008F12003200320032A1
:101F7000003240010F1300320032003200324001C3
:101F80000F170032003200320032FF30400197005C
:101F9000F330A000FF30A1008E31A2268F318D31A9
:101FA0005A258F31080040015A085B040319D92FC4
:101FB000DA2FEE2F0130DA020030DB3B58088600C2
:101FC0005908870001088D311D258F3101304001EE
:101FD000D8070030D93D0330F600FE2F6008031902
:101FE000F22FF32FFA2FE0018C31E3248F310130EF
:101FF000F600FE2F8D3169258F31F6007608080036
:10200000573472346934743469346E34673420342C
:1020100061342034733469346E3467346C3465341D
:10202000203462347934743465342C3420343034C0
:1020300078343134323420346134743420343034E0
:10204000783430343034303430345D340A340D3444
:102050000034453472347234203457347234693465
:10206000743469346E3467340A340D344D34393481
:1020700035345F34773472346934743465345F34A2
:102080006234793474346534733420347234653492
:102090007434753472346E346534643420340034EE
:1020A0005334753463346334653473347334203497
:1020B0003A3429340A34523465346134643469342E
:1020C0006E34673420345334523441344D345B34ED
:1020D00030342D3430347834313430345D342E346F
:1020E0002E342E340A340D3400340A340D34523474
:1020F0006534613464342034733469346E34673445
:102100006C3465342034623479347434653420346A
:1021100061347434203430347834303430343034F2
:1021200030342E340A340D340A340D34003445343E
:1021300072347234203469346E34693474346934DE
:1021400061346C3469347A3469346E3467342034E1
:1021500045344534503452344F344D342E342E34BB
:102160002E3420343A3428340A340D3400345234B6
:1021700065346134643469346E34673420345334E4
:10218000523441344D345B3430342D34303478346F
:10219000313430345D34203461346734613469342F
:1021A0006E342E342E342E340A340D3400341A3466
:1021B0000E34003400345A34023400340034003415
:1021C000003400340034003400340034003400346F
:1021D00000340034003400340034003400348334DC
:1021E0000D34003400345734723469347434693433
:1021F0006E34673420345334523441344D345B34BC
:1022000030345D3420343D34203430347834463436
:1022100046342E342E342E340A340D3400344E34E9
:102220006F3420346434613474346134203466345F
:102230006F347234203445344534503452344F3482
:102240004D342034773472346934743465340A344C
:102250000D3400344F346434643420346E347534B7
:102260006D3462346534723420346F346634203413
:1022700068346534783420346434693467346934BC
:10228000743473340A340D34003400340A34103496
:102290003F340034643400341034013400340034EA
:1022A0000034103407340034403410341034073410
:1022B0000034003410341034073400344E346F349A
:1022C00020346434613474346134203466346F34BF
:1022D000723420345334523441344D342034773402
:1022E00072346934743465340A340D34003447343C
:1022F00065347434743469346E3467342034733420
:102300007434613474347534733420346234793401
:10231000743465342E342E342E340A34003453345D
:10232000523441344D342034773472346934743447
:102330006534203474346F346F3420346C346F342B
:102340006E3467340A340D340034523465346134E9
:10235000643469346E346734203453345234413435
:102360004D345B3430345D342E342E342E340A3404
:102370000D3400340B340E34003400340034003497
:1023800000340034003400340034003400340034AD
:102390000034003400340034003400343634353432
:1023A00030343234203475346E342D3469346E3424
:1023B00074346534723472347534703474340A345D
:1023C0000D340034533474346134743475347334DC
:1023D000203472346534673469347334743465344A
:1023E00072343A3420343034783400344534723422
:1023F00072342034523465346134643469346E3458
:10240000673420345334523441344D340A340D345B
:10241000003445347234723420347234653461349B
:10242000643469346E346734203453345234413464
:102430004D340A340D34003445347234723420344F
:10244000573472346934743469346E3467342034E8
:102450005334523441344D340A340D340034423450
:1024600061346434203445344534503452344F346C
:102470004D342034773472346934743465340A341A
:102480000D3400340D340D3461340D3445340D34C5
:10249000D3340F34CC34063427340D342D340D347A
:1024A00069340D344C340D34523465346134643441
:1024B000203473346F346D34653474346834693463
:1024C0006E3467343A340A340D34003442346134A3
:1024D0006434203445344534503452344F344D3410
:1024E000203472346534613464340A340D34003479
:1024F000573472346F3474346534203473346F3429
:102500006D3465347434683469346E3467343A3405
:1025100020340034413462346F34753474342034E0
:1025200074346F34203477347234693474346534DD
:102530002E342E342E340034533450344934203465
:102540004F34703465346E34203466346134693409
:102550006C34653464340D340A34003442346134EC
:10256000643420345334523441344D34203477347D
:1025700072346934743465340A340D3400343634BA
:10258000353430343234203469346E347434653444
:10259000723472347534703474340A340D34003447
:1025A00042346134643420345334523441344D3431
:1025B000203472346534613464340A340D340034A8
:1025C0005334523441344D342034773472346934C6
:1025D0007434653420346F346B340A340D34003471
:1025E0003634353430343234203475346E342D344E
:1025F000723465347334653474340A340D34003401
:102600005334523441344D345B3430342D3430340F
:102610007834313430345D343A3420340034453445
:102620007234723420345234653461346434693421
:102630006E3467340A340D34003436343534303473
:1026400032342034723465347334653474340A346B
:102650000D3400340A340D34563465347234733416
:1026600069346F346E343A34203400345334523485
:1026700041344D345B3430345D3420343D342034C7
:1026800000342034623479347434653473342E3435
:102690000A340D3400345334523441344D343A3416
:0C26A0002034003430342E343034003448
:020000040001F9
:08000000FF3FFF3FFF3FFF3F00
:0A000E008C3FFF3F9F3FFF3FFF3F85
:00000001FF
