:1000000080316728FF34FF347E1480314E01161C86
:100010000A280B2813280C1C0E280F2813288A31B5
:10002000912280316528161E162817281F280C1EBD
:100030001A281B281F288A31D822803165280B1FD7
:10004000222823286528191F2628272832280F1F31
:100050002A282B283228410147088A0046080A002E
:1000600080316528991F3528362841288F1F392867
:100070003A284128410143088A0042080A00803199
:100080006528991D442845284D288F1D4828492852
:100090004D288A31692280316528191D5028512840
:1000A00059280F1D5428552859288A316D2280312E
:1000B0006528191C5C285D2865280F1C60286128AC
:1000C00065288D31EA25803165287E100900803150
:1000D00069284101803102208031EB00803103200A
:1000E0008031EC00F001F101F201F301F401203064
:1000F0008400003085001E308A319D228031A0307E
:100100008400003085002E308A319D2280312030DD
:1001100084000130850046308A319D228031A03034
:1001200084000130850040308A319D2280312030AA
:1001300084000230850046308A319D2280317E1055
:1001400040018031A3288B31882380318C31942465
:1001500080318B170B178A31442280318A31472234
:1001600080317E304001BE000D30BF008A31FC225C
:1001700080318A313E228031C8304001C100863052
:10018000C2008C31082480314001921198158731CA
:100190007227803100304001C300C400C5018C319A
:1001A000FA24803100304001C300C4008D31502555
:1001B0008031003A0319DD28DE28E7289D30400110
:1001C000C1009030C2008C3108248031E628003014
:1001D0004001C300C400DD30C5008C31FA248031F9
:1001E00000304001C300C4008D3150258031003003
:1001F0004001C3000F30C400C5018C31FA248031A6
:1002000000304001C3000F30C4008D3150258031D3
:10021000003A03190C290D291629BC304001C100F0
:100220009030C2008C310824803115290030400103
:10023000C3000F30C400AF30C5008C31FA248031C8
:1002400000304001C3000F30C4008D315025803193
:1002500000304001C1009030C2008C310824803150
:1002600082304001C1009230C2008C3108248031BC
:10027000A4304001C1009230C2008C31082480318A
:100280009A304001C1009230C2008C310824803184
:1002900040013C0803194D294E2948292030BE0051
:1002A0002030BF008B31B02380314001BC012030B1
:1002B000BE008B31DB23803140013F084101EA0061
:1002C00040013E084101E90069086A04031D6929EB
:1002D0006A296B294829573042012006031D7129DC
:1002E0007229052A41016A08803A4001D400803011
:1002F0005402031D7E29053041016902031881293A
:1003000082298B294B304001C1009230C2008C31D0
:1003100008248031482921304001C1000430C20046
:100320000030C3008E316D2680314001420841010A
:10033000CF00400141084101CE006908FB3EDA00D0
:10034000FF306A3DDB005B08803A4001D40080301A
:100350005402031DAE29013041015A020318B1298C
:10036000B229BB293D304001C1009230C2008C311E
:1003700008248031482925304001C10041015B0833
:100380004001C30041015A084001C200A030C4002E
:100390004030C5000030C60085313C258031400129
:1003A00042084101D100400141084101D0004F08FD
:1003B0004001C10041014E084001C0004101510807
:1003C0004001C300410150084001C200A030C400F8
:1003D000843186248031400140084101DE00DF3055
:1003E0004001C1009130C2008C31082480314101AC
:1003F0005E088C31B42480319A304001C1009030C5
:10040000C2008C3108248031482952302006031D57
:100410000A2A0B2AA22A41016A08803A4001D40024
:1004200080305402031D172A093041016902031864
:100430001A2A1B2A242A4B304001C1009230C200E4
:100440008C3108248031482921304001C10004301A
:10045000C2000030C3008E316D2680314001420859
:100460004101D300400141084101D2002530400143
:10047000C1000430C2000030C3008E316D268031CF
:10048000400142084101E400400141084101E3000C
:1004900000306402413003196302031C502A512AC0
:1004A000552A4030E3000030E40053084001C10009
:1004B000410152084001C000410164084001C300ED
:1004C000410163084001C200A030C4008F315427AD
:1004D00080314001C11F6D2A6E2A762A7530C10015
:1004E0009130C2008C310824803148290030C1008D
:1004F0009230C2008C31082480314101DF01E001DB
:100500008F2A5F08A03E86000130870001088C31E9
:10051000B424803101304101DF070030E03D640840
:100520006002031D952A63085F02031C982A992A1A
:10053000812A9A304001C1009030C2008C310824D9
:100540008031482977302006031DA72AA82A752B59
:1005500041016A08803A4001D40080305402031DF2
:10056000B42A0530410169020318B72AB82AC12A02
:100570004B304001C1009230C2008C3108248031E0
:10058000482921304001C1000330C2000030C300BF
:100590008E316D268031400142084101D500400175
:1005A00041084101D4006908FC3EE700FF306A3D84
:1005B000E8006808803A4001D40080305402031DEE
:1005C000E42A0130410167020318E72AE82AF12AE8
:1005D0003D304001C1009230C2008C31082480318E
:1005E000482941016808803A4001D4008030540213
:1005F000031DFD2A813041016702031C002B012BE2
:100600000A2B10304001C1009230C2008C31082406
:1006100080314829410167180E2B0F2B182B5930B8
:100620004001C1009230C2008C3108248031482939
:1006300024304001C100410168084001C30041016C
:1006400067084001C200A030C4004030C50000303F
:10065000C60085313C258031400142084101D70068
:10066000400141084101D60054084001C300410146
:1006700055084001C400C501C601410157084001A9
:10068000C800410156084001C700A030C9008F31A1
:10069000AA278031400144084101DD0040014308A0
:1006A0004101DC00DD1F552B562B5F2BBD30400177
:1006B000C1009130C2008C310824803148292E308D
:1006C0004001C1009230C2008C31082480314101C8
:1006D0005C088C31B42480319A304001C1009030E4
:1006E000C2008C3108248031482972302006031D55
:1006F0007A2B7B2B142C41016A08803A4001D400EC
:1007000080305402031D872B073041016902031812
:100710008A2B8B2B942B4B304001C1009230C200AE
:100720008C3108248031482921304001C100033038
:10073000C2000030C3008E316D2680314001420876
:100740004101D900400141084101D8002430400155
:10075000C1000330C2000030C3008E316D268031ED
:10076000400142084101E600400141084101E50025
:1007700000306602413003196502031CC02BC12BF7
:10078000C52B4030E5000030E60058084001C300AA
:10079000410159084001C400C501C6014101660874
:1007A0004001C800410165084001C700A030C900F0
:1007B0008E31FF2680314001C41FDF2BE02BE82B58
:1007C000F030C1009130C2008C31082480314829BA
:1007D0006730C1009230C2008C3108248031410161
:1007E000E101E201012C6108A03E86000130870092
:1007F00001088C31B424803101304101E10700301F
:10080000E23D66086202031D072C65086102031CB5
:100810000A2C0B2CF32B9A304001C1009030C200FF
:100820008C310824803148294F302006031D192CB3
:100830001A2C262C8A314A228031CE304001C10048
:100840009130C2008C310824803148292D30200697
:10085000031D2B2C2C2C382C8A31442280311F3044
:100860004001C1009230C2008C31082480314829F7
:1008700049302006031D3D2C3E2C4A2C8A31412252
:10088000803175304001C1009230C2008C310824A3
:100890008031482969302006031D4F2C502C5C2CD8
:1008A0008A314722803150304001C1009130C2006E
:1008B0008C310824803148293F302006031D612CEB
:1008C000622C7B2C8E304001C1009230C2008C31F2
:1008D00008248031A4304001C1009230C2008C3124
:1008E000082480319A304001C1009030C2008C3120
:1008F00008248031482987304001C1009130C2006E
:100900008C3108248031482980316728400144080F
:1009100003198B2C8C2C9D2CC11B8F2C902C9D2C67
:100920004308803AC50080304502031D992C0130F0
:10093000420203189C2C9D2CA32CFF304001C000C8
:10094000FF30C1003B2D40014408C9004308CF00DF
:100950004208CE004108D1004008D0002B2D4001B4
:10096000181206308B31C5238431400118163F30F0
:100970005005C60000305105C7004030C50046088C
:100980004502CA0047090318890ACB004F08803A7C
:10099000C5004B08803A4502031DD02C4A084E0280
:1009A000031CD32CD42CDA2C40014B08D3004A086A
:1009B000D200DF2C40014F08D3004E08D20018129D
:1009C00002308B31C5238431400151088B31C5235E
:1009D0008431400150088B31C52384314001CC0162
:1009E000CD01012D400149084C07860001308700E8
:1009F00001088B31C523843101304001CC07003020
:100A0000CD3D4D08803AC5005308803A4502031D8C
:100A10000B2D52084C02031C0E2D0F2DF22C400101
:100A20001816181205308B31C5238431FF308B31F5
:100A3000C52384314001C80018164818202D212DE7
:100A4000112D5208D0075308D13D5208C90752084A
:100A5000CE025308CF3B4F08803AC5008030450294
:100A6000031D342D01304E020318372D382DAF2CC5
:100A70004001C001C10108004001CE01CF01D001F9
:100A8000D1019B2D400141085007860001308700AD
:100A900001088E312A26853140013F08CB003E08EF
:100AA000CA005008013EC7000030513DC800480848
:100AB000803AC9004308803A4902031D612D42086B
:100AC0004702031C642D652D6B2DFF304001CC00C7
:100AD000FF30CD007C2D400150084107C700470A78
:100AE00086000130870001088E312A2685314001B9
:100AF0003F08CD003E08CC00CB1B7F2D802DB82DAC
:100B0000CD1F832D842D852DB82D44084E078600DA
:100B1000013087004A08C7000430C735890B8D2D86
:100B200047084C0481000130CE070030CF3D023031
:100B3000D0070030D13D5108803AC7004308803AC1
:100B40004702031DA52D420850020318A82DA92D08
:100B5000B82D40014F08803AC7004608803A470246
:100B6000031DB42D45084E02031CB72DB82D422D90
:100B700040014F08C2004E08C10008004001980122
:100B8000183099009A019B019C019D01FF30920051
:100B9000DA3093009401950108309600FF309700F9
:100BA000DF307E01B8006030C300CE01D901E4011E
:100BB0007C01D00120307E01B900C401CF01DA01EF
:100BC000E5017C01D1017E01BA01C501D001DB0143
:100BD000E6017C01D201FF307E01BB00FF30C60080
:100BE000FF30D100FF30DC000730E700FF307C0130
:100BF000D300FF307E01BC00FF30C700FF30D200C1
:100C0000FF30DD000F30E800FF307C01D4000930F8
:100C10007D01C6000F30CD000530900016307E01FA
:100C20009A0011309D0008307D01C50015307E010D
:100C300098000B307D01C80017307E019B000C30FE
:100C40007D01C90018307E019C00BD012030BE002E
:100C5000BF01C801C901CA01D301D401D501E9010D
:100C6000EA01EB01FF304001BE000730BF008A31CE
:100C7000F32285314E01161608004301901A412EC9
:100C8000422EB32E8130F40040014408C500C60155
:100C90004508BE004608BF000530C0000030C10056
:100CA0008C3174248631F73040013E0784001030C7
:100CB0003F3D80388500000843018F004001440813
:100CC000C500C6014508BE004608BF000530C0008B
:100CD0000030C1008C3174248631F83040013E0769
:100CE000840010303F3D80388500000843019000AB
:100CF00040014408C500C6014508BE004608BF00C3
:100D00000530C0000030C1008C3174248631F930C8
:100D100040013E07840010303F3D803885000008C8
:100D20004301920040014408C500C6014508BE00C9
:100D30004608BF000530C0000030C1008C3174246B
:100D40008631FA3040013E07840010303F3D803844
:100D50008500000843018D0090164E0119100130E6
:100D60004001C700B52E4001C701470808003034D4
:100D7000313432343334343435343634373438342F
:100D800039344134423443344434453446340034F5
:100D90000A340D340A340D340A340D343D343D34F4
:100DA0003D343D343D343D343D343D343D343D34BB
:100DB0003D343D343D343D343D343D343D343D34AB
:100DC0003D343D343D343D343D343D343D343D349B
:100DD0003D343D343D343D343D343D343D343D348B
:100DE0003D343D343D343D343D343D343D343D347B
:100DF0003D343D343D343D343D343D343D340A349E
:100E00000D344234613473346934633420346934CA
:100E10002F346F34203449344E34493454344934F7
:100E200041344C3449345A34453444340A340D3452
:100E3000003440013835A03E860087010030C03FB5
:100E4000C13F54019D1C252F262F372F40013835D7
:100E5000A03E860087010115300831040319312FA7
:100E6000322F372F31088A0030080A0087315401A9
:100E70001D1D3B2F3C2F4D2F40013835A03E8600D5
:100E800087018114320833040319472F482F4D2F4F
:100E900033088A0032080A00873154011908F80023
:100EA00040013808013E0739F90079083706031D6B
:100EB0005A2F5B2F5C2F662F3808B03E86008701C3
:100EC000780881007908B8000130B6073408350485
:100ED00003196B2F6C2F712F35088A0034080A0014
:100EE000873108008B3166238731400118161212B2
:100EF00093140430C40086313D268731003A031D27
:100F0000822F832F912FAB304001C1009130C2005E
:100F10008C3108248731FF304001C800FF30C90000
:100F2000C82F10304001C1009130C2008C3108241C
:100F300087314001181205308B31C52387312E309F
:100F40008B3177238731FF308B31C52387314001C7
:100F5000CA00CB014A08CC004B08CD0018163C3023
:100F6000C1009130C2008C310824873140014C0807
:100F70008C31B4248731BA304001C1009130C200B5
:100F80008C310824873140014D08C9004C08C80045
:100F900008004E01991319304101C2000730C30007
:100FA0004E0119133C304101C6000C30C7004830D7
:100FB00054019F0090309D0026309E0044309B00DD
:100FC0009C0127304001BE000A30BF008B3108234E
:100FD00087314D304001BE000A30BF008B311423F1
:100FE00087314101C801C9014001BB01BA01083084
:100FF000B900B801B701B6014E0199170800080001
:10144E00080008004E018F1108004E010F11080010
:10145E0043011B15080043011608080043019B15A4
:10146E00080043019B10080043019B1408004E0125
:10147E009917080040011810080040019810080044
:10148E0040011814080040019814080054011D1260
:10149E001D16080043019A129A16080043019A136A
:1014AE001A13080043019B121B160800430119086A
:1014BE000139080043019B161B1608004001A001CC
:1014CE00083008008C3157248A3108008E31B2263C
:1014DE008A3108004E01191599150800F500750896
:1014EE004301960008004301190E890C01390800CA
:1014FE008A31C7228A31F500750808008A31AA227E
:10150E008A31F5007508080043011B0E890C890C01
:10151E00013908004E010C108B3120238A3108004E
:10152E0040013F08AF003E08AE0008006400800195
:10153E000131890B9E2A0034400121358A317522F2
:10154E008A31033008008A3151228A314001A001CC
:10155E000030080003104301991E03140030093DAA
:10156E00080040019B16FF3097009B171B170800C1
:10157E0003144001210D8A3175228A31043008008E
:10158E008A312F228A318B319B238A310030080019
:10159E0040013608031DD42AD62A0130D72A00303E
:1015AE0008007E01BF1EDC2ADD2AE02A8B3148238B
:1015BE008A31080040013F084101CD0040013E083C
:1015CE004101CC00080040013908031DEF2AF12A21
:1015DE000130F22A0030080040013F084101C100ED
:1015EE0040013E084101C000080040013E083F0492
:1015FE000319022B032B072B3F08B5003E08B4003E
:10160E00080040013E083F0403190E2B0F2B132B2D
:10161E003F08B3003E08B200080040013E083F04F8
:10162E0003191A2B1B2B1F2B3F08B1003E08B000CD
:10163E00080040012E082F040319262B272B2C2BD4
:10164E002F088A002E080A008B3108004E010C105C
:10165E0028304001BE000A30BF008A3197228B31FC
:10166E004E0116140800103051018D008F019101AA
:10167E000530930020309200101C462B472B432B35
:10168E00080041014008410403194E2B4F2B542BE7
:10169E0041088A0040080A008B317E01BF12080003
:1016AE0080304301990008309A009B019C014F3015
:1016BE0097008A3171228B3143019A1608004E0130
:1016CE0019100F1043018F01900192018D0100300E
:1016DE004001BE00BF008A31E1228B31F4010800C7
:1016EE004001C0008A31EA228B31003A0319802B67
:1016FE00812B792B40014008BE008C31D6248B31D2
:10170E0008008B313A238B318531BE258B318731E1
:10171E00C9278B318B3157238B318B3166238B311C
:10172E008B312D238B3108004001A0010030A20027
:10173E00FF30A100A301A401A701A801AD018A31C8
:10174E002C228B318A3129228B318A3155228B31D1
:10175E00080040013E08C0004008860001308700A6
:10176E00C00A3F08840002308500BF0A0008C03F4F
:10177E008908031DC32BC42BB32B08004001BE00E8
:10178E004E010F1040013E0843018C004E010F1C0C
:10179E00D12BD22BCD2B43010C084001BF004E01A3
:1017AE000F1040013F08080040013E08C000E12B29
:1017BE000130BE073E088600013087000108031D78
:1017CE00E92BEA2BDF2B40083E02BE00BF01BE1BF9
:1017DE00BF030800FF304001BE050730BF053E08BD
:1017EE009A003F08C1003E08C0004108C000C10178
:1017FE0007304005C2001C08F83942049C00000066
:10180E000800162C410884004208850000088B3120
:10181E0077238C3101304001C1070030C23D4001B9
:10182E0041088400420885001200031D1F2C202C45
:10183E00092C080040013708B03E860087010108D8
:10184E00F6003708013E0739F5007508B7004E015E
:10185E009913400136080319352C362C382C0130DB
:10186E00B6024E0199177608080008304001390279
:10187E000318422C432C542C3A08B83E860087019C
:10188E00010854019A0040013A08013E0739F5005B
:10189E007508BA000130B907562C4E01191308000D
:1018AE0006304001AD000330AC008A3129228C3164
:1018BE0040012D08F700F801F735F80D6330770772
:1018CE0084001130783D80388500013F8A00003F4A
:1018DE000A008C314001AD0008004001C201C30175
:1018EE003E1C7A2C7B2C7F2C4008C2074108C33D3E
:1018FE000130C035C10D890B802C0130BF36BE0CB6
:10190E00890B852C3E083F04031D8E2C8F2C772CC3
:10191E004308BF004208BE000800FF304001970098
:10192E007C01D00140019B171B179B161B169A01B9
:10193E00F8309C050000000040019401F830960537
:10194E009513151395121512FC307E01B805400142
:10195E00181498101210921008004001C20042088C
:10196E00C1000430C136890BB92C41080F39B73E7E
:10197E00840086300318013E850000088B317723E2
:10198E008C31400142080F39B73E8400863003186F
:10199E00013E850000088B3177238C3108004E0103
:1019AE00191BDA2CDB2CE02C40013E0854019A0066
:1019BE00F72C400139080319E52CE62CF72C3B08CF
:1019CE00B83E860087013E0881003B08013E07397C
:1019DE00BF003F08BB004E01191301304001B90290
:1019EE004E011917080040019B171B174408BF0032
:1019FE004308BE008B31F1238C31000040019B1255
:101A0E0000004001970145089D00000040011B1396
:101A1E000000000040011B17000040019B16FF3024
:101A2E009700F330BE00FF30BF008B31F1238C31B5
:101A3E008A31B8228C31080040012508260403198A
:101A4E00292D2A2D3E2D0130A5020030A63B23085C
:101A5E0086002408870001088A3175228D310130F5
:101A6E004001A3070030A43D0330F6004E2D2B0895
:101A7E000319422D432D4A2DAB018A313B228D3164
:101A8E000130F6004E2D8A31C7228D31F6007608D0
:101A9E00080040011B179B179B167C01D0014001CB
:101AAE009D01FF309700000040014408BF0043082D
:101ABE00BE008B31F1238D3140019B1200000000DE
:101ACE0040019B130000000040011108C5009B1748
:101ADE000000F3304001BE00FF30BF008B31F12318
:101AEE008D318A31B8228D314001450808008A3186
:101AFE00CF228D31003A0319852D862DAF2D8C31D5
:101B0E0021248D31F700453040013D020318902D00
:101B1E00912DAE2D3D08203E8600023087007708BD
:101B2E0081000130BD070A30770603199F2DA02DC5
:101B3E00A62D0D307706031DA52DA62DAF2D3D0824
:101B4E00203E86000230870081010130BC00BD01BD
:101B5E0008000430F5008A315D228D31003A0319F8
:101B6E00B92DBA2DE52D400129082A040319C02DDF
:101B7E00C12DD22D27088600280887008A313222EF
:101B8E008D31810001304001A7070030A83D0130A2
:101B9E00A9020030AA3B29082A040319D72DD82DF3
:101BAE00DC2D8A3159228D31E82D8A3138228D3142
:101BBE008A3161228D310730F500E82D8A313522C8
:101BCE008D31750808004E010F10F5017108720471
:101BDE000319F22DF32D132E813073060319F82DF0
:101BEE00F92DFF2D70088600870143010C08810036
:101BFE000130F00773080319052E062E0B2E700800
:101C0E00860087010108F5000130F1020030F23B39
:101C1E00750843018C00292E813073060319182E86
:101C2E00192E252E8130740603191E2E1F2E252ED9
:101C3E0070088600870143010C0881008130F40092
:101C4E004E01191008004001C00030304002031C44
:101C5E00312E322E402E3A3040020318372E382EB7
:101C6E00402E4008D03EBE00FF3003180030BF00AB
:101C7E006C2E41304002031C452E462E542E47300A
:101C8E00400203184B2E4C2E542E4008C93EBE0067
:101C9E00FF3003180030BF006C2E61304002031C71
:101CAE00592E5A2E682E6730400203185F2E602E72
:101CBE00682E4008A93EBE00FF3003180030BF005A
:101CCE006C2EFF30BE00FF30BF0008004001C8017F
:101CDE00C901CA01CB019E2E400141084A07860068
:101CEE000130870001088E312A268E3140013F08CF
:101CFE00C7003E08C600C71F852E862E872EAC2E27
:101D0E004908C5004808C400C40EC50EF030C5050C
:101D1E0044080F39C504F030C40546084404C80011
:101D2E0047084504C9000130CA070030CB3D4B08B7
:101D3E00803AC4004308803A4402031DA82E42088C
:101D4E004A02031CAB2EAC2E732E40014908C20072
:101D5E004808C10008008A312C228E314301191E19
:101D6E00B92EBA2EBE2E8B319B238E31EA2E8A319E
:101D7E00B1228E31003A0319C52EC62ED42E8A31C9
:101D8E008B228E31003A0319CD2ECE2ED42E053055
:101D9E004001AD000130AC00EA2E8A317A228E313C
:101DAE00003A0319DB2EDC2EEA2E8A318B228E317D
:101DBE00003A0319E32EE42EEA2E05304001AD0061
:101DCE000230AC00EA2E40012D08F700F801F7357D
:101DDE00F80D6330770784001130783D8038850028
:101DEE00013F8A00003F0A008E314001AD0008001D
:101DFE0040011B179B179B167C01D00140019D01D2
:101E0E00FF309700000040019B12000000004001CF
:101E1E009B1343084707CB004408483DCC004408B9
:101E2E00CE004308CD00322F40014E08BF004D08B2
:101E3E00BE008B31F1238E310000000040014908B5
:101E4E00860001308700110881000130C90701307A
:101E5E00CD070030CE3D4E08803ACA004C08803A7D
:101E6E004A02031D3C2F4B084D02031C3F2F402FEF
:101E7E001B2F40019B170000F3304001BE00FF30C6
:101E8E00BF008B31F1238E318A31B8228E31400161
:101E9E004808C4004708C30008004001440803195D
:101EAE00592F5A2F6B2FC11B5D2F5E2F6B2F43089F
:101EBE00803AC50080304502031D672F0130420273
:101ECE0003186A2F6B2F712FFF304001C000FF30B7
:101EDE00C100A92F4001181203308B31C5238F3159
:101EEE00400141088B31C5238F31400140088B31B1
:101EFE00C5238F3140014408C600C701C801972F82
:101F0E00400146084707860001308700FF308B31BD
:101F1E00C5238F31810001304001C7070030C83D15
:101F2E004808803AC5004308803A4502031DA12F98
:101F3E0042084702031CA42FA52F872F4001181615
:101F4E00C001C101080040019B171B1797014308F0
:101F5E004707CB004408483DCC004408CE00430858
:101F6E00CD00DF2F40014E08BF004D08BE008B3163
:101F7E00F1238F31000040019B12000040014908FF
:101F8E0086000130870001089D00000040011B13F0
:101F9E000000000040011B17000040019B1601309D
:101FAE00C9070000000001304001CD070030CE3DD2
:101FBE004E08803ACA004C08803A4A02031DE92FA7
:101FCE004B084D02031CEC2FED2FB92FFF304001B3
:101FDE009700F330BE00FF30BF008B31F1238F31FD
:101FEE008A31B8228F3140014808C4004708C30027
:101FFE00080049346E3469347434203473347534C3
:10200E00633463346534733473342E3420343A3489
:10201E0029340A340D34553453344534463455344A
:10202E004C34203436343534303432342034433466
:10203E004F34503452344F34433445345334533484
:10204E004F345234203443344F344E34543452349B
:10205E004F344C3420345334483445344C344C349F
:10206E0020346234793420344A344F345334453476
:10207E0050344834203452342034463452344534AB
:10208E004534533454344F344E340034C934073449
:10209E000034003421340C34D6340C34CF340A34AA
:1020AE00EA340A340034003400340034003400348E
:1020BE000034003400340034003400340034003472
:1020CE000034003400340034003400340034003462
:1020DE0000340034FC340A340034003408340B3439
:1020EE0014340B340034003400340034453472346C
:1020FE007234203469346E34693474346934613422
:10210E006C3469347A3469346E346734203445342F
:10211E004534503452344F344D342E342E342E3404
:10212E0020343A3428340A340D34003445347234B1
:10213E0072346F34723420347734723469347434B8
:10214E0069346E346734203474346F342034303450
:10215E00783430343034303420346F3466342034B4
:10216E005334523441344D34003445347234723465
:10217E006F34723420347734723469347434693481
:10218E006E346734203474346F3420343034783401
:10219E0046343034303420346F3466342034533483
:1021AE00523441344D34003466340B340034003430
:1021BE003D3406340034003400340034003400342E
:1021CE000034003400340034003400340034003461
:1021DE000034003400340034E1340A340034003466
:1021EE0000340A3410343F34003464340034103474
:1021FE0001340034003400341034073400344034D9
:10220E0010341034073400340034103410340734D2
:10221E000034473465347434743469346E3467343E
:10222E00203473347434613474347534733420341C
:10223E0062347934743465342E342E342E340A34A8
:10224E00003457340B34003400340034003400347E
:10225E0000340034003400340034003400340034D0
:10226E000034003400340034003453347434613498
:10227E00743475347334203472346534673469348D
:10228E0073347434653472343A34203430347834E0
:10229E0000344F344B343A344334503455345F3475
:1022AE004934523451345F3443344C344534413420
:1022BE0052340A340D34003465340A34BF340A34CF
:1022CE00A3340A3423340D34B0340D347F340A343D
:1022DE0085340A34C7340A34AA340A3445345234A5
:1022EE0052343A3445344534503452344F344D34EC
:1022FE005F3452344534413444340A340D3400349E
:10230E004534523452343A3455344E344B344E34C0
:10231E004F3457344E345F3443344D3444340A34DE
:10232E000D3400344534523452343A344534453445
:10233E00503452344F344D345F3457345234493460
:10234E00543445343A340034533450344934203400
:10235E004F34703465346E342034663461346934ED
:10236E006C34653464340D340A34003445345234DC
:10237E0052343A345334523441344D345F3457343A
:10238E0052344934543445340A340D3400344F3405
:10239E004B343A344334503455345F3455344E3420
:1023AE00523445345334453454340A340D340034E5
:1023BE004F344B343A3445344534503452344F3420
:1023CE004D345F34573452344934543445343A34EE
:1023DE0000344534523452343A3453345234413446
:1023EE004D345F3452344534413444340A340D3460
:1023FE0000344F344B343A3445344534503452342F
:10240E004F344D345F3452344534413444343A34CD
:10241E0000344534523452343A3454344F344F34F9
:10242E005F344C344F344E3447340A340D34003458
:10243E004F344B343A344334503455345F34523481
:10244E0045345334453454340A340D3400344F3447
:10245E004B343A345334523441344D345F34573460
:10246E0052344934543445343A34003445345234B9
:10247E0052343A344E344F345F344434413454344D
:10248E0041340A340D3400344534523452343A3423
:10249E004234413444345F3443344D3444340A348A
:1024AE000D3400344534523452343A344F344434BB
:1024BE0044345F344834453458340A340D340034CF
:1024CE004F344B343A345334523441344D345F34F8
:1024DE0052344534413444343A3400344F344B345E
:1024EE003A344334503455345F34493452345134D1
:1024FE000A340D3400340A340D34563465347234D3
:10250E00733469346F346E343A34203400344F34BB
:10251E004B343A34563445345234533449344F34B0
:10252E004E343A3400340A340D3452344534413486
:10253E00443459340A340D34003430342E343034AB
:02254E00003457
:020000040001F9
:08000000FF3FFF3FFF3FFF3F00
:0A000E008C3FFF3F9F3FFF3FFF3F85
:00000001FF
